:020000040000FA
:100000000C9462000C9476040C944F040C948A00B7
:100010000C948A000C948A000C948A000C948A0038
:100020000C948A000C948A000C948A000C948A0028
:100030000C948A000C948A000C948A000C948A0018
:100040000C9405040C948A000C94D3030C94AD0317
:100050000C948A000C948A000C948A000C948A00F8
:100060000C948A000C948A000000000023002600F3
:10007000290000000008000201000003040700003E
:1000800000000000000000000000250028002B00F8
:1000900000000000240027002A00040404040404D3
:1000A0000404020202020202030303030303010227
:1000B00004081020408001020408102001020408F6
:1000C0001020C60511241FBECFEFD8E0DEBFCDBF84
:1000D00011E0A0E0B1E0E2E6FCE002C005900D9284
:1000E000A634B107D9F721E0A6E4B1E001C01D9222
:1000F000A53FB207E1F710E0C2E6D0E004C02197C7
:10010000FE010E942906C136D107C9F70E949D044D
:100110000C942F060C940000AF92BF92CF92DF9206
:10012000EF92FF920F931F93CF93DF936C017B01AC
:100130008B01040F151FEB015E01AE18BF08C0173D
:10014000D10759F06991D601ED91FC910190F081B0
:10015000E02DC6010995892B79F7C501DF91CF9173
:100160001F910F91FF90EF90DF90CF90BF90AF90D5
:100170000895FC01538D448D252F30E0842F90E0AD
:10018000821B930B541710F0CF9608950197089592
:10019000FC01918D828D981761F0A28DAE0FBF2F5B
:1001A000B11D5D968C91928D9F5F9F73928F90E0B1
:1001B00008958FEF9FEF0895FC01918D828D981720
:1001C00031F0828DE80FF11D858D90E008958FEF5D
:1001D0009FEF0895FC01918D228D892F90E0805C26
:1001E0009F4F821B91098F739927089588E591E0AD
:1001F0000E94EA0021E0892B09F420E0822F089573
:1002000080E090E0892B29F00E94F60081110C9487
:1002100000000895FC01A48DA80FB92FB11DA35AA9
:10022000BF4F2C91848D90E001968F739927848F16
:10023000A689B7892C93A089B1898C918370806439
:100240008C93938D848D981306C00288F389E02DDA
:1002500080818F7D80830895EF92FF920F931F938B
:10026000CF93DF93EC0181E0888F9B8D8C8D981369
:100270001AC0E889F989808185FF15C09FB7F89475
:10028000EE89FF896083E889F989808183708064C1
:1002900080839FBF81E090E0DF91CF911F910F910C
:1002A000FF90EF900895F62E0B8D10E00F5F1F4F1B
:1002B0000F731127E02E8C8D8E110CC00FB607FC2A
:1002C000FACFE889F989808185FFF5CFCE010E94B8
:1002D0000A01F1CFEB8DEC0FFD2FF11DE35AFF4F1B
:1002E000F0829FB7F8940B8FEA89FB898081806246
:1002F000CFCFCF93DF93EC01888D8823B9F0AA8903
:10030000BB89E889F9898C9185FD03C0808186FDD0
:100310000DC00FB607FCF7CF8C9185FFF2CF80811F
:1003200085FFEDCFCE010E940A01E9CFDF91CF9189
:100330000895833081F028F4813099F08230A9F05B
:1003400008958730A9F08830C9F08430B1F48091E5
:1003500080008F7D03C0809180008F778093800024
:10036000089584B58F7784BD089584B58F7DFBCFC4
:100370008091B0008F778093B00008958091B00095
:100380008F7DF9CFCF93DF93282F30E0F901EE581E
:10039000FF4F8491F901E255FF4FD491F901E656E0
:1003A000FF4FC491CC23A1F081110E949901EC2F41
:1003B000F0E0EE0FFF1FE859FF4FA591B491EC91CB
:1003C000ED2381E090E009F480E0DF91CF91089582
:1003D00080E090E0FACF1F93CF93DF93282F30E097
:1003E000F901EE58FF4F8491F901E255FF4FD49186
:1003F000F901E656FF4FC491CC23A9F0162F8111C5
:100400000E949901EC2FF0E0EE0FFF1FEA57FF4F1B
:10041000A591B4918FB7F894EC91111108C0D095C3
:10042000DE23DC938FBFDF91CF911F910895DE2BE8
:10043000F8CF3FB7F89480914F0190915001A0916F
:100440005101B091520126B5A89B05C02F3F19F06C
:100450000196A11DB11D3FBFBA2FA92F982F882744
:10046000BC01CD01620F711D811D911D42E0660F1F
:10047000771F881F991F4A95D1F708958F929F92F1
:10048000AF92BF92CF92DF92EF92FF926B017C010D
:100490000E9419024B015C01C114D104E104F10472
:1004A000B9F00E941902681979098A099B09683E06
:1004B00073408105910580F321E0C21AD108E1085B
:1004C000F10888EE880E83E0981EA11CB11CE4CFD1
:1004D000FF90EF90DF90CF90BF90AF909F908F9064
:1004E00008950895FC0101900020E9F73197AF01CC
:1004F000481B590BBC0188E591E00C948C008F924D
:100500009F92AF92BF920F931F93CF93DF93CDB77C
:10051000DEB7A1970FB6F894DEBF0FBECDBF19A20C
:10052000423008F44AE08E010F5D1F4F842E912C5B
:10053000B12CA12CA50194010E940706E62FB90158
:10054000CA01EA30F4F4E05DD801EE938D01232B6B
:10055000242B252B79F790E080E0109719F0CD013E
:100560000E947202A1960FB6F894DEBF0FBECDBFF7
:10057000DF91CF911F910F91BF90AF909F908F907F
:100580000895E95CE1CF0F931F93CF93DF93CDB72D
:10059000DEB72A970FB6F894DEBF0FBECDBF85E059
:1005A0000E94C2018C0186E00E94C2012091570185
:1005B000222331F10115110519F1009709F110926B
:1005C0005401109253011092490110924801109267
:1005D0004701109246011092570186E291E00E9475
:1005E00072028CE291E00E9472022A960FB6F89491
:1005F000DEBF0FBECDBFDF91CF911F910F91089548
:10060000209157012111F1CFE0915501F091560150
:100610002091530130915401E25EFE4F40814D30F4
:1006200009F054C00115110509F450C02F5F3F4F68
:1006300030935401209353018091480190914901D6
:1006400001969093490180934801809153019091C4
:1006500054010A9759F481E0809357018FE291E0A9
:100660000E9472028CE291E00E94720280913C0131
:1006700090913D01A0913E01B0913F018F839887F9
:10068000A987BA8786E0E0E4F1E0DE0111960190E7
:100690000D928A95E1F7CE0107960E947202609151
:1006A00048017091490190E080E04AE00E947F0299
:1006B000CE0101960E94720260914601709147013D
:1006C00090E080E04AE00E947F028BCFE0915501EC
:1006D000F0915601E25EFE4F40814A3091F400975E
:1006E00061F12F5F3F4F309354012093530180916C
:1006F00046019091470101969093470180934601EE
:10070000A4CF012BE1F4892B59F0809146019091FF
:100710004701009779F00197909347018093460134
:100720008091040191E08927809304018ECF30E00D
:1007300020E00EC090E080E0EFCF012B89F3209104
:100740004801309149012115310589F321503109C2
:100750003093490120934801D6CF1F920F920FB6D4
:100760000F9211242F933F934F935F936F937F9337
:100770008F939F93AF93BF93EF93FF9388E591E09F
:100780000E940A01FF91EF91BF91AF919F918F91CC
:100790007F916F915F914F913F912F910F900FBE7D
:1007A0000F901F9018951F920F920FB60F92112461
:1007B0002F938F939F93EF93FF93E0916801F091B4
:1007C00069018081E0916E01F0916F0182FD1BC093
:1007D0009081809171018F5F8F73209172018217D8
:1007E00041F0E0917101F0E0E85AFE4F958F80935F
:1007F0007101FF91EF919F918F912F910F900FBEFB
:100800000F901F9018958081F4CF1F920F920FB612
:100810000F9211242F933F938F939F93AF93BF9386
:1008200080914B0190914C01A0914D01B0914E01EE
:1008300030914A0123E0230F2D3758F50196A11D71
:10084000B11D20934A0180934B0190934C01A093DA
:100850004D01B0934E0180914F0190915001A091B4
:100860005101B09152010196A11DB11D80934F011C
:1008700090935001A0935101B0935201BF91AF9159
:100880009F918F913F912F910F900FBE0F901F90CE
:10089000189526E8230F0296A11DB11DD2CF1F92F5
:1008A0000F920FB60F9211242F933F934F935F93A4
:1008B0006F937F938F939F93AF93BF93EF93FF9328
:1008C000E0910201F09103010995FF91EF91BF9131
:1008D000AF919F918F917F916F915F914F913F91D8
:1008E0002F910F900FBE0F901F9018951F920F928F
:1008F0000FB60F9211242F933F934F935F936F93F3
:100900007F938F939F93AF93BF93EF93FF93E09168
:100910000001F09101010995FF91EF91BF91AF9115
:100920009F918F917F916F915F914F913F912F9107
:100930000F900FBE0F901F901895789484B5826029
:1009400084BD84B5816084BD85B5826085BD85B573
:10095000816085BD80916E00816080936E001092F1
:10096000810080918100826080938100809181006C
:1009700081608093810080918000816080938000FD
:100980008091B10084608093B1008091B00081605B
:100990008093B00080917A00846080937A00809187
:1009A0007A00826080937A0080917A0081608093DF
:1009B0007A0080917A00806880937A001092C1005A
:1009C000A7E1B1E08D9190E0FC01E255FF4F249149
:1009D00086569F4FFC018491882399F090E0880F00
:1009E000991FFC01E057FF4FC591D491FC01EA57D4
:1009F000FF4F859194918FB7F894E881E22BE883BB
:100A00008FBFF1E0AF31BF07E9F683EC92E090933E
:100A100001018093000180916900836080936900E7
:100A2000E89AE0916801F091690182E08083E091A9
:100A30006401F09165011082E0916601F091670117
:100A40008FEC808310927001E0916C01F0916D0148
:100A500086E08083E0916A01F0916B018081806182
:100A60008083E0916A01F0916B01808188608083CE
:100A7000E0916A01F0916B01808180688083E09150
:100A80006A01F0916B0180818F7D808304EF11E01A
:100A9000C0E0D0E080915701882381F18EE1E82EFB
:100AA00081E0F82E670161E0F60181916F010E94FB
:100AB000EB01F6E2CF16F1E0DF06A9F768EE73E08E
:100AC00080E090E00E943E0260E0F70181917F01AA
:100AD0000E94EB01F6E2EF16F1E0FF06A9F768EEDF
:100AE00073E080E090E00E943E02209799F20E941D
:100AF000F600882379F20E940000CCCFE0915501E6
:100B0000F0915601E25EFE4F61E080810E94EB01B0
:100B100060915301709154016F5F7F4FC8010E9433
:100B2000F30590E080E00E943E02E0915501F091D3
:100B30005601E25EFE4F60E080810E94EB018091F1
:100B400004018823A1F080915501909156010196EE
:100B500090935601809355018091550190915601D3
:100B6000877099279093560180935501BECF80914D
:100B7000550190915601892B31F08091550190914A
:100B800056010197E5CF87E090E0E2CFE8E5F1E09C
:100B90001382128288EE93E0A0E0B0E08483958314
:100BA000A683B78389E091E09183808385EC90E010
:100BB0009587848784EC90E09787868780EC90E027
:100BC000918B808B81EC90E0938B828B82EC90E018
:100BD000958B848B86EC90E0978B868B118E128E92
:100BE000138E148E0895AA1BBB1B51E107C0AA1FC8
:100BF000BB1FA617B70710F0A61BB70B881F991FBE
:100C00005A95A9F780959095BC01CD010895A1E270
:100C10001A2EAA1BBB1BFD010DC0AA1FBB1FEE1F76
:100C2000FF1FA217B307E407F50720F0A21BB30BC1
:100C3000E40BF50B661F771F881F991F1A9469F73D
:100C400060957095809590959B01AC01BD01CF0199
:100C50000895EE0FFF1F0590F491E02D0994F8948C
:100C6000FFCF7102710201000000002C018C00B95D
:100C7000007901EA00C800DC000D0C0B0A09080726
:100C80000D0C07090A0B07085245534554000D0A7D
:100C90000046696E616C2053636F72653A00503193
:080CA00020002F20503220003B
:107E0000112484B714BE81FFF0D085E080938100F7
:107E100082E08093C00088E18093C10086E0809377
:107E2000C20080E18093C4008EE0C9D0259A86E02C
:107E300020E33CEF91E0309385002093840096BBD3
:107E4000B09BFECF1D9AA8958150A9F7CC24DD24C4
:107E500088248394B5E0AB2EA1E19A2EF3E0BF2EE7
:107E6000A2D0813461F49FD0082FAFD0023811F036
:107E7000013811F484E001C083E08DD089C08234E0
:107E800011F484E103C0853419F485E0A6D080C0E4
:107E9000853579F488D0E82EFF2485D0082F10E0AE
:107EA000102F00270E291F29000F111F8ED06801E7
:107EB0006FC0863521F484E090D080E0DECF843638
:107EC00009F040C070D06FD0082F6DD080E0C81688
:107ED00080E7D80618F4F601B7BEE895C0E0D1E017
:107EE00062D089930C17E1F7F0E0CF16F0E7DF06D8
:107EF00018F0F601B7BEE89568D007B600FCFDCFD4
:107F0000A601A0E0B1E02C9130E011968C91119780
:107F100090E0982F8827822B932B1296FA010C0160
:107F200087BEE89511244E5F5F4FF1E0A038BF0790
:107F300051F7F601A7BEE89507B600FCFDCF97BE46
:107F4000E89526C08437B1F42ED02DD0F82E2BD052
:107F50003CD0F601EF2C8F010F5F1F4F84911BD097
:107F6000EA94F801C1F70894C11CD11CFA94CF0C13
:107F7000D11C0EC0853739F428D08EE10CD085E9AC
:107F80000AD08FE07ACF813511F488E018D01DD067
:107F900080E101D065CF982F8091C00085FFFCCF94
:107FA0009093C60008958091C00087FFFCCF809118
:107FB000C00084FD01C0A8958091C6000895E0E648
:107FC000F0E098E1908380830895EDDF803219F02E
:107FD00088E0F5DFFFCF84E1DECF1F93182FE3DFCA
:107FE0001150E9F7F2DF1F91089580E0E8DFEE27F6
:047FF000FF270994CA
:027FFE00040479
:00000001FF
