:020000040000FA
:100000000C9462000C9466040C943F040C948A00D7
:100010000C948A000C948A000C948A000C948A0038
:100020000C948A000C948A000C948A000C948A0028
:100030000C948A000C948A000C948A000C948A0018
:100040000C94F5030C948A000C94C3030C949D0348
:100050000C948A000C948A000C948A000C948A00F8
:100060000C948A000C948A000000000023002600F3
:10007000290000000008000201000003040700003E
:1000800000000000000000000000250028002B00F8
:1000900000000000240027002A00040404040404D3
:1000A0000404020202020202030303030303010227
:1000B00004081020408001020408102001020408F6
:1000C00010209D0511241FBECFEFD8E0DEBFCDBFAD
:1000D00011E0A0E0B1E0E0E1FCE002C005900D928B
:1000E000A034B107D9F721E0A0E4B1E001C01D922E
:1000F000AF3EB207E1F710E0C2E6D0E004C02197BE
:10010000FE010E940006C136D107C9F70E948D0486
:100110000C9406060C940000AF92BF92CF92DF922F
:10012000EF92FF920F931F93CF93DF936C017B01AC
:100130008B01040F151FEB015E01AE18BF08C0173D
:10014000D10759F06991D601ED91FC910190F081B0
:10015000E02DC6010995892B79F7C501DF91CF9173
:100160001F910F91FF90EF90DF90CF90BF90AF90D5
:100170000895FC01538D448D252F30E0842F90E0AD
:10018000821B930B541710F0CF9608950197089592
:10019000FC01918D828D981761F0A28DAE0FBF2F5B
:1001A000B11D5D968C91928D9F5F9F73928F90E0B1
:1001B00008958FEF9FEF0895FC01918D828D981720
:1001C00031F0828DE80FF11D858D90E008958FEF5D
:1001D0009FEF0895FC01918D228D892F90E0805C26
:1001E0009F4F821B91098F739927089582E591E0B3
:1001F0000E94EA0021E0892B09F420E0822F089573
:1002000080E090E0892B29F00E94F60081110C9487
:1002100000000895FC01A48DA80FB92FB11DA35AA9
:10022000BF4F2C91848D90E001968F739927848F16
:10023000A689B7892C93A089B1898C918370806439
:100240008C93938D848D981306C00288F389E02DDA
:1002500080818F7D80830895EF92FF920F931F938B
:10026000CF93DF93EC0181E0888F9B8D8C8D981369
:100270001AC0E889F989808185FF15C09FB7F89475
:10028000EE89FF896083E889F989808183708064C1
:1002900080839FBF81E090E0DF91CF911F910F910C
:1002A000FF90EF900895F62E0B8D10E00F5F1F4F1B
:1002B0000F731127E02E8C8D8E110CC00FB607FC2A
:1002C000FACFE889F989808185FFF5CFCE010E94B8
:1002D0000A01F1CFEB8DEC0FFD2FF11DE35AFF4F1B
:1002E000F0829FB7F8940B8FEA89FB898081806246
:1002F000CFCFCF93DF93EC01888D8823B9F0AA8903
:10030000BB89E889F9898C9185FD03C0808186FDD0
:100310000DC00FB607FCF7CF8C9185FFF2CF80811F
:1003200085FFEDCFCE010E940A01E9CFDF91CF9189
:100330000895833081F028F4813099F08230A9F05B
:1003400008958730A9F08830C9F08430B1F48091E5
:1003500080008F7D03C0809180008F778093800024
:10036000089584B58F7784BD089584B58F7DFBCFC4
:100370008091B0008F778093B00008958091B00095
:100380008F7DF9CFCF93DF93282F30E0F901EE581E
:10039000FF4F8491F901E255FF4FD491F901E656E0
:1003A000FF4FC491CC23A1F081110E949901EC2F41
:1003B000F0E0EE0FFF1FE859FF4FA591B491EC91CB
:1003C000ED2381E090E009F480E0DF91CF91089582
:1003D00080E090E0FACF1F93CF93DF93282F30E097
:1003E000F901EE58FF4F8491F901E255FF4FD49186
:1003F000F901E656FF4FC491CC23A9F0162F8111C5
:100400000E949901EC2FF0E0EE0FFF1FEA57FF4F1B
:10041000A591B4918FB7F894EC91111108C0D095C3
:10042000DE23DC938FBFDF91CF911F910895DE2BE8
:10043000F8CF3FB7F8948091490190914A01A0917B
:100440004B01B0914C0126B5A89B05C02F3F19F078
:100450000196A11DB11D3FBFBA2FA92F982F882744
:10046000BC01CD01620F711D811D911D42E0660F1F
:10047000771F881F991F4A95D1F708958F929F92F1
:10048000AF92BF92CF92DF92EF92FF926B017C010D
:100490000E9419024B015C01C114D104E104F10472
:1004A000B9F00E941902681979098A099B09683E06
:1004B00073408105910580F321E0C21AD108E1085B
:1004C000F10888EE880E83E0981EA11CB11CE4CFD1
:1004D000FF90EF90DF90CF90BF90AF909F908F9064
:1004E00008950895FC0101900020E9F73197AF01CC
:1004F000481B590BBC0182E591E00C948C008F9253
:100500009F92AF92BF920F931F93CF93DF93CDB77C
:10051000DEB7A1970FB6F894DEBF0FBECDBF19A20C
:10052000423008F44AE08E010F5D1F4F842E912C5B
:10053000B12CA12CA50194010E94DE05E62FB90182
:10054000CA01EA30F4F4E05DD801EE938D01232B6B
:10055000242B252B79F790E080E0109719F0CD013E
:100560000E947202A1960FB6F894DEBF0FBECDBFF7
:10057000DF91CF911F910F91BF90AF909F908F907F
:100580000895E95CE1CF0F931F93CF93DF93CDB72D
:10059000DEB72A970FB6F894DEBF0FBECDBF85E059
:1005A0000E94C2018C0186E00E94C201209151018B
:1005B0002223D1F001151105B9F00097A9F010928E
:1005C0004E0110924D01109243011092420110927F
:1005D00051012A960FB6F894DEBF0FBECDBFDF9152
:1005E000CF911F910F910895209151012111F1CFC9
:1005F000E0914F01F0915001E25EFE4F4081209169
:100600004D0130914E014D3009F057C0012B09F4D6
:1006100077C02F5F3F4F30934E0120934D01809163
:1006200042019091430101969093430180934201CE
:1006300080914D0190914E010A9759F481E0809389
:10064000510186E291E00E94720283E391E00E94F0
:1006500072028091360190913701A0913801B091DA
:1006600039018F839887A987BA8786E0EAE3F1E0AA
:10067000DE01119601900D928A95E1F7CE01079661
:100680000E947202609142017091430190E080E00B
:100690004AE00E947F02CE0101960E9472026091A0
:1006A00040017091410190E080E04AE00E947F02A9
:1006B00083E391E00E9472028CCF4A3091F400975C
:1006C000C9F12F5F3F4F30934E0120934D01809130
:1006D0004001909141010196909341018093400126
:1006E000A7CF012B69F020914201309143012115E0
:1006F0003105D1F02150310930934301209342015B
:10070000892B59F08091400190914101009779F037
:10071000019790934101809340018091040191E001
:1007200089278093040184CF30E020E0E5CF90E07A
:1007300080E0EFCF012BB9F6F0CF1F920F920FB6EA
:100740000F9211242F933F934F935F936F937F9357
:100750008F939F93AF93BF93EF93FF9382E591E0C5
:100760000E940A01FF91EF91BF91AF919F918F91EC
:100770007F916F915F914F913F912F910F900FBE9D
:100780000F901F9018951F920F920FB60F92112481
:100790002F938F939F93EF93FF93E0916201F091DA
:1007A00063018081E0916801F091690182FD1BC0C5
:1007B000908180916B018F5F8F7320916C01821704
:1007C00041F0E0916B01F0E0EE5AFE4F958F80937F
:1007D0006B01FF91EF919F918F912F910F900FBE21
:1007E0000F901F9018958081F4CF1F920F920FB633
:1007F0000F9211242F933F938F939F93AF93BF93A7
:100800008091450190914601A0914701B091480126
:100810003091440123E0230F2D3758F50196A11D97
:10082000B11D209344018093450190934601A0930C
:100830004701B09348018091490190914A01A091EC
:100840004B01B0914C010196A11DB11D809349014E
:1008500090934A01A0934B01B0934C01BF91AF918B
:100860009F918F913F912F910F900FBE0F901F90EE
:10087000189526E8230F0296A11DB11DD2CF1F9215
:100880000F920FB60F9211242F933F934F935F93C4
:100890006F937F938F939F93AF93BF93EF93FF9348
:1008A000E0910201F09103010995FF91EF91BF9151
:1008B000AF919F918F917F916F915F914F913F91F8
:1008C0002F910F900FBE0F901F9018951F920F92AF
:1008D0000FB60F9211242F933F934F935F936F9313
:1008E0007F938F939F93AF93BF93EF93FF93E09189
:1008F0000001F09101010995FF91EF91BF91AF9136
:100900009F918F917F916F915F914F913F912F9127
:100910000F900FBE0F901F901895789484B5826049
:1009200084BD84B5816084BD85B5826085BD85B593
:10093000816085BD80916E00816080936E00109211
:10094000810080918100826080938100809181008C
:10095000816080938100809180008160809380001D
:100960008091B10084608093B1008091B00081607B
:100970008093B00080917A00846080937A008091A7
:100980007A00826080937A0080917A0081608093FF
:100990007A0080917A00806880937A001092C1007A
:1009A000A7E1B1E02FE131E08D9190E0FC01E2554B
:1009B000FF4F449186569F4FFC018491882399F004
:1009C00090E0880F991FFC01E057FF4FC591D4912B
:1009D000FC01EA57FF4F859194918FB7F894E88115
:1009E000E42BE8838FBF2A173B07F1F683EC92E0F4
:1009F000909301018093000180916900836080934E
:100A00006900E89AE0916201F091630182E08083DD
:100A1000E0915E01F0915F011082E0916001F09140
:100A200061018FEC808310926A01E0916601F09180
:100A3000670186E08083E0916401F0916501808127
:100A400080618083E0916401F0916501808188601C
:100A50008083E0916401F0916501808180688083EA
:100A6000E0916401F091650180818F7D808394EF36
:100A7000E92EFF24F39400E010E0809151018823D7
:100A800061F18EE1C82E81E0D82EE60161E0899106
:100A90000E94EB01F1E0C632DF07C1F768EE73E0B8
:100AA00080E090E00E943E0260E0F60181916F01DB
:100AB0000E94EB01CC15DD05B9F768EE73E080E02C
:100AC00090E00E943E0201151105B9F20E94F60065
:100AD000882399F20E940000D0CFC0914F01D0919D
:100AE0005001FE01E25EFE4FD08061E08D2D0E943C
:100AF000EB0160914D0170914E016F5F7F4FC70117
:100B00000E94CA0590E080E00E943E0260E08D2DC8
:100B10000E94EB0180910401882341F02196C77067
:100B2000DD27D0935001C0934F01CDCF209711F016
:100B30002197F5CFC7E0D0E0F2CFE2E5F1E01382F4
:100B4000128288EE93E0A0E0B0E084839583A683D0
:100B5000B78389E091E09183808385EC90E095876D
:100B6000848784EC90E09787868780EC90E0918B77
:100B7000808B81EC90E0938B828B82EC90E0958B64
:100B8000848B86EC90E0978B868B118E128E138E61
:100B9000148E0895AA1BBB1B51E107C0AA1FBB1FDF
:100BA000A617B70710F0A61BB70B881F991F5A95F9
:100BB000A9F780959095BC01CD010895A1E21A2E68
:100BC000AA1BBB1BFD010DC0AA1FBB1FEE1FFF1FF1
:100BD000A217B307E407F50720F0A21BB30BE40B41
:100BE000F50B661F771F881F991F1A9469F7609588
:100BF0007095809590959B01AC01BD01CF01089542
:100C0000EE0FFF1F0590F491E02D0994F894FFCFAB
:100C10007102710201000000002C018C00B9007902
:100C200001EA00C800DC000D0C0B0A0908070D0CD6
:100C300007090A0B070846696E616C2053636F72DF
:100C4000653A000D0A00503120002F20503220005C
:107E0000112484B714BE81FFF0D085E080938100F7
:107E100082E08093C00088E18093C10086E0809377
:107E2000C20080E18093C4008EE0C9D0259A86E02C
:107E300020E33CEF91E0309385002093840096BBD3
:107E4000B09BFECF1D9AA8958150A9F7CC24DD24C4
:107E500088248394B5E0AB2EA1E19A2EF3E0BF2EE7
:107E6000A2D0813461F49FD0082FAFD0023811F036
:107E7000013811F484E001C083E08DD089C08234E0
:107E800011F484E103C0853419F485E0A6D080C0E4
:107E9000853579F488D0E82EFF2485D0082F10E0AE
:107EA000102F00270E291F29000F111F8ED06801E7
:107EB0006FC0863521F484E090D080E0DECF843638
:107EC00009F040C070D06FD0082F6DD080E0C81688
:107ED00080E7D80618F4F601B7BEE895C0E0D1E017
:107EE00062D089930C17E1F7F0E0CF16F0E7DF06D8
:107EF00018F0F601B7BEE89568D007B600FCFDCFD4
:107F0000A601A0E0B1E02C9130E011968C91119780
:107F100090E0982F8827822B932B1296FA010C0160
:107F200087BEE89511244E5F5F4FF1E0A038BF0790
:107F300051F7F601A7BEE89507B600FCFDCF97BE46
:107F4000E89526C08437B1F42ED02DD0F82E2BD052
:107F50003CD0F601EF2C8F010F5F1F4F84911BD097
:107F6000EA94F801C1F70894C11CD11CFA94CF0C13
:107F7000D11C0EC0853739F428D08EE10CD085E9AC
:107F80000AD08FE07ACF813511F488E018D01DD067
:107F900080E101D065CF982F8091C00085FFFCCF94
:107FA0009093C60008958091C00087FFFCCF809118
:107FB000C00084FD01C0A8958091C6000895E0E648
:107FC000F0E098E1908380830895EDDF803219F02E
:107FD00088E0F5DFFFCF84E1DECF1F93182FE3DFCA
:107FE0001150E9F7F2DF1F91089580E0E8DFEE27F6
:047FF000FF270994CA
:027FFE00040479
:00000001FF
