:100000000C945D000C9468030C9441030C948500DF
:100010000C9485000C9485000C9485000C9485004C
:100020000C9485000C9485000C9485000C9485003C
:100030000C9485000C9485000C9485000C9485002C
:100040000C94F7020C9485000C94C5020C949F024A
:100050000C9485000C9485000C9485000C9485000C
:100060000C9485000C94850000000008000201003B
:100070000003040700000000000000000000000072
:10008000250028002B0000000000240027002A0083
:10009000040404040404040402020202020203032E
:1000A0000303030301020408102040800102040836
:1000B0001020010204081020A10511241FBECFEF5B
:1000C000D8E0DEBFCDBF11E0A0E0B1E0E2E6FCE0A9
:1000D00002C005900D92A032B107D9F721E0A0E24D
:1000E000B1E001C01D92AC3CB207E1F710E0CDE5F4
:1000F000D0E004C02197FE010E942906CC35D1072B
:10010000C9F70E948F030C942F060C94000085E41D
:1001100080937C0080917A00806480937A00809143
:100120007A0086FDFCCF8091780090917900089547
:1001300080912901811103C081E0809329010895F4
:10014000AF92BF92CF92DF92EF92FF920F931F93E5
:10015000CF93DF936C017B018B01040F151FEB0123
:100160005E01AE18BF08C017D10759F06991D601DA
:10017000ED91FC910190F081E02DC6010995892B4C
:1001800079F7C501DF91CF911F910F91FF90EF900B
:10019000DF90CF90BF90AF900895FC01538D448DB8
:1001A000252F30E0842F90E0821B930B541710F022
:1001B000CF96089501970895FC01918D828D98172F
:1001C00061F0A28DAE0FBF2FB11D5D968C91928D07
:1001D0009F5F9F73928F90E008958FEF9FEF089538
:1001E000FC01918D828D981731F0828DE80FF11D01
:1001F000858D90E008958FEF9FEF0895FC01918D1C
:10020000228D892F90E0805C9F4F821B91098F7314
:10021000992708958FE291E00E94FE0021E0892B4A
:1002200009F420E0822F089580E090E0892B29F0E6
:100230000E940A0181110C9400000895FC01A48D14
:10024000A80FB92FB11DA35ABF4F2C91848D90E0F8
:1002500001968F739927848FA689B7892C93A089DB
:10026000B1898C91837080648C93938D848D981365
:1002700006C00288F389E02D80818F7D80830895F8
:10028000EF92FF920F931F93CF93DF93EC0181E0E6
:10029000888F9B8D8C8D98131AC0E889F98980818D
:1002A00085FF15C09FB7F894EE89FF896083E889C0
:1002B000F98980818370806480839FBF81E090E0B2
:1002C000DF91CF911F910F91FF90EF900895F62E3F
:1002D0000B8D10E00F5F1F4F0F731127E02E8C8DD9
:1002E0008E110CC00FB607FCFACFE889F98980811E
:1002F00085FFF5CFCE010E941E01F1CFEB8DEC0FF3
:10030000FD2FF11DE35AFF4FF0829FB7F8940B8F3A
:10031000EA89FB8980818062CFCFCF93DF93EC01A4
:10032000888D8823B9F0AA89BB89E889F9898C91DD
:1003300085FD03C0808186FD0DC00FB607FCF7CF99
:100340008C9185FFF2CF808185FFEDCFCE010E9499
:100350001E01E9CFDF91CF91089590E0FC01E859AB
:10036000FF4F2491FC01EC55FF4F3491FC01E05705
:10037000FF4FE491EE23C9F0222339F0233001F13D
:10038000A8F4213019F1223029F1F0E0EE0FFF1F1F
:10039000E458FF4FA591B4918FB7F894EC91611197
:1003A00026C030953E233C938FBF08952730A9F097
:1003B0002830C9F0243049F7809180008F7D03C038
:1003C000809180008F7780938000DFCF84B58F7716
:1003D00084BDDBCF84B58F7DFBCF8091B0008F775C
:1003E0008093B000D2CF8091B0008F7DF9CF3E2BAB
:1003F000DACF3FB7F8948091210190912201A0912A
:100400002301B091240126B5A89B05C02F3F19F008
:100410000196A11DB11D3FBFBA2FA92F982F882784
:10042000BC01CD01620F711D811D911D42E0660F5F
:10043000771F881F991F4A95D1F708958F929F9231
:10044000AF92BF92CF92DF92EF92FF924B015C018D
:100450000E94F9016B017C010E94F9016C197D0970
:100460008E099F09683E734081059105A8F321E03C
:10047000821A9108A108B10888EEC80E83E0D81E40
:10048000E11CF11C81149104A104B10429F7FF902F
:10049000EF90DF90CF90BF90AF909F908F90089596
:1004A00008958F929F92AF92BF920F931F93CF9315
:1004B000DF93CDB7DEB7A1970FB6F894DEBF0FBEBE
:1004C000CDBF19A2423008F44AE08E010F5D1F4FE4
:1004D000842E912CB12CA12CA50194010E94F80529
:1004E000E62FB901CA01EA3044F5E05DD801EE9388
:1004F0008D01232B242B252B79F790E080E010979A
:1005000069F0FD0101900020E9F73197AF014A1B26
:100510005B0BBD018FE291E00E94A000A1960FB697
:10052000F894DEBF0FBECDBFDF91CF911F910F9129
:10053000BF90AF909F908F900895E95CD7CF1F92A6
:100540000F920FB60F9211242F933F934F935F9307
:100550006F937F938F939F93AF93BF93EF93FF938B
:100560008FE291E00E941E01FF91EF91BF91AF9148
:100570009F918F917F916F915F914F913F912F91BB
:100580000F900FBE0F901F9018951F920F920FB6ED
:100590000F9211242F938F939F93EF93FF93E091EA
:1005A0003F01F09140018081E0914501F0914601C9
:1005B00082FD1BC09081809148018F5F8F732091D5
:1005C0004901821741F0E0914801F0E0E15DFE4F02
:1005D000958F80934801FF91EF919F918F912F917B
:1005E0000F900FBE0F901F9018958081F4CF1F922F
:1005F0000F920FB60F9211242F933F938F939F93D7
:10060000AF93BF938091250190912601A09127017E
:10061000B09128013091200123E0230F2D3758F5A8
:100620000196A11DB11D2093200180932501909377
:100630002601A0932701B093280180912101909178
:100640002201A0912301B09124010196A11DB11DA9
:100650008093210190932201A0932301B093240160
:10066000BF91AF919F918F913F912F910F900FBEAE
:100670000F901F90189526E8230F0296A11DB11D1B
:10068000D2CF1F920F920FB60F9211242F933F9348
:100690004F935F936F937F938F939F93AF93BF938A
:1006A000EF93FF93E0910201F09103010995FF910F
:1006B000EF91BF91AF919F918F917F916F915F91DA
:1006C0004F913F912F910F900FBE0F901F90189553
:1006D0001F920F920FB60F9211242F933F934F93B7
:1006E0005F936F937F938F939F93AF93BF93EF939A
:1006F000FF93E0910001F09101010995FF91EF91C5
:10070000BF91AF919F918F917F916F915F914F9129
:100710003F912F910F900FBE0F901F9018957894D6
:1007200084B5826084BD84B5816084BD85B58260F6
:1007300085BD85B5816085BD80916E0081608093A7
:100740006E00109281008091810082608093810010
:100750008091810081608093810080918000816020
:10076000809380008091B10084608093B10080917B
:10077000B00081608093B00080917A0084608093A3
:100780007A0080917A00826080937A0080917A006A
:10079000816080937A0080917A00806880937A00EB
:1007A0001092C100A8E1B1E02EE131E08D9190E01E
:1007B000FC01EC55FF4F449180579F4FFC01849101
:1007C000882399F090E0880F991FFC01EA57FF4FAA
:1007D000C591D491FC01E458FF4F859194918FB756
:1007E000F894E881E42BE8838FBF2A173B07F1F6E2
:1007F00088E990E090930101809300018091690065
:10080000836080936900E89A61E08BE00E94AD010B
:1008100060E08CE00E94AD0160E08DE00E94AD01DF
:1008200060E08AE00E94AD0161E089E00E94AD01D4
:100830002FB7F8948091250190912601A09127016E
:10084000B09128012FBF88389341A105B105E8F484
:100850000E94870090932C0180932B0120912D0101
:1008600030912E012817390724F490932E0180939C
:100870002D01209104013091050182179307C4F6E0
:100880009093050180930401D3CFE0913F01F09153
:10089000400182E08083E0913B01F0913C011082B5
:1008A000E0913D01F0913E018FEC80831092470171
:1008B000E0914301F091440186E08083E0914101A1
:1008C000F0914201808180618083E0914101F0914B
:1008D0004201808188608083E0914101F091420172
:1008E000808180688083E0914101F09142018081A4
:1008F0008F7D8083C0E0D0E00E948700C09004011B
:10090000D0900501E0912D01F0912E0196018C15FA
:100910009D052CF09F018E179F070CF49C010D2C58
:10092000000CEE08FF08032E000C440B550B2C198D
:100930003D094E095F09AFEFB0E00E94ED059F0150
:10094000FF0F440B550B2C193D094E095F090E94FE
:10095000CE0530932C0120932B016901330FEE0853
:10096000FF084AE0C701B601F7FE0DC06DE28FE255
:1009700091E00E94400166277727CB016C197D0921
:100980008E099F094AE00E94510242E050E06DE169
:1009900071E08FE291E00E94A00080912B01909184
:1009A0002C0184369105D4F580912A01811113C060
:1009B00060E08BE00E94AD0160E08DE00E94AD013F
:1009C00060E08AE00E94AD0160E089E00E94AD0134
:1009D00081E080932A0180912A018823B9F161E0A6
:1009E0008CE00E94AD0168EE73E080E090E00E9430
:1009F0001E0260E08CE00E94AD0168EE73E080E0D2
:100A000090E00E941E02209709F476CF0E940A010E
:100A1000882309F471CF0E9400006ECF87399105B9
:100A2000D4F261E08BE00E94AD0160E08DE00E94B5
:100A3000AD0160E08AE00E94AD0161E089E00E94C2
:100A4000AD0110922A0110922901C5CF8091290190
:100A50008823C9F204E010E060E08BE00E94AD0161
:100A600068EE73E080E090E00E941E0261E08BE09F
:100A70000E94AD0168EE73E080E090E00E941E02EB
:100A80000150110949F760E08BE00E94AD0161E07F
:100A90008CE00E94AD0168EE73E080E090E00E947F
:100AA0001E0260E08CE00E94AD0161E08DE00E94DA
:100AB000AD0160E089E00E94AD0161E08AE00E9442
:100AC000AD0168E873E180E090E00E941E0204E05E
:100AD00010E060E08AE00E94AD0168EE73E080E023
:100AE00090E00E941E0261E08AE00E94AD0168EE83
:100AF00073E080E090E00E941E020150110949F766
:100B000060E08AE00E94AD0161E089E00E94AD01F1
:100B100061E08CE00E94AD0168EE73E080E090E05F
:100B20000E941E0260E08CE00E94AD0160E08DE05A
:100B30000E94AD0161E08BE00E94AD01109229019D
:100B400062CFEFE2F1E01382128288EE93E0A0E040
:100B5000B0E084839583A683B7838AE091E0918394
:100B6000808385EC90E09587848784EC90E097877C
:100B7000868780EC90E0918B808B81EC90E0938B6A
:100B8000828B82EC90E0958B848B86EC90E0978B47
:100B9000868B118E128E138E148E0895052E97FB60
:100BA0001EF400940E94E50557FD07D00E94F80549
:100BB00007FC03D04EF40C94E50550954095309514
:100BC00021953F4F4F4F5F4F0895909580957095B9
:100BD00061957F4F8F4F9F4F08950E941A06A59FE2
:100BE000900DB49F900DA49F800D911D1124089528
:100BF000A1E21A2EAA1BBB1BFD010DC0AA1FBB1F21
:100C0000EE1FFF1FA217B307E407F50720F0A21B92
:100C1000B30BE40BF50B661F771F881F991F1A94FF
:100C200069F760957095809590959B01AC01BD0129
:100C3000CF010895A29FB001B39FC001A39F700D83
:100C4000811D1124911DB29F700D811D1124911DD4
:100C50000895EE0FFF1F0590F491E02D0994F8948C
:020C6000FFCFC4
:100C620050025002FF03000000004001A000CD002E
:100C72008D01FE00DC00F0000A090D0C0B0D0A00CC
:00000001FF
